:020000040800F2
:10000000183C002065020008D91E0008091E0008DF
:10001000D51E0008B908000841450008000000008E
:10002000000000000000000000000000A90100081E
:10003000BD08000800000000FD0100088D3D00081B
:100040007F0200087F0200087F0200087F0200088C
:100050007F0200087F0200087F0200087F0200087C
:100060007F0200087F0200087F0200087F0200086C
:100070007F0200087F0200087F0200087F0200085C
:100080007F0200087F0200087F02000800000000D5
:100090000000000000000000000000007F020008D7
:1000A0007F0200087F0200087F0200087F0200082C
:1000B000BD3E0008CD3E00087F0200087F02000818
:1000C0007F0200087F0200087F0200087F0200080C
:1000D0007F0200082944000839440008000000009D
:1000E000BF0800087F0200087F020008000000002F
:1000F0000000000000000000000000007F02000877
:10010000000000007F0200087F0200087F02000854
:1001100000000000000000000000000000000000DF
:100120007F0200087F0200087F0200087F020008AB
:100130007F02000800000000000000000000000036
:100140000000000000000000000000007F02000826
:100150007F0200087F0200087F0200087F0200087B
:100160007F0200087F02000800000000000000007D
:10017000000000000000000000000000000000007F
:10018000000000007F0200080000000000000000E6
:100190007F020008DFF80CD000F020FB0048004789
:1001A000D1590008183C00202B4B19680868B0E8AA
:1001B000F04F80F30988BFF36F8F4FF0000080F39A
:1001C000118870470000000006480068006880F34E
:1001D000088862B661B6BFF34F8FBFF36F8F00DF41
:1001E00000BF00BF08ED00E0DFF80C00016841F43B
:1001F00070010160704700BF88ED00E0EFF30980F7
:10020000BFF36F8F144B1A681EF0100F08BF20ED5C
:10021000108A20E9F04F106008B44FF0500080F3CE
:100220001188BFF34F8FBFF36F8F05F0CDFD4FF0F7
:10023000000080F3118808BC19680868B0E8F04F26
:100240001EF0100F08BFB0EC108A80F30988BFF3CE
:100250006F8F704700BF00BF3C000020EFF30580A8
:10026000704700000648804706480047FEE7FEE763
:10027000FEE7FEE7FEE7FEE7FEE7FEE7FEE7FEE756
:10028000593E00089501000840EA01039B0703D08E
:1002900009E008C9121F08C0042AFAD203E011F8C5
:1002A000013B00F8013B521EF9D27047D2B201E087
:1002B00000F8012B491EFBD270470022F6E710B56B
:1002C00013460A4604461946FFF7F0FF204610BDC4
:1002D00030B505462A460B4612F8010B13F8014BC0
:1002E00008B1A042F8D01CB1002802D06D1CF1E783
:1002F000284630BD421C10F8011B0029FBD1801A92
:1003000070472DE9FE4F81EA030404F0004421F018
:10031000004100944FF0000B23F0004350EA010429
:100320005ED052EA03045BD0C3F30A54C1F30A550A
:100330002C44A4F2F3340194A0FB0254C1F3130142
:1003400041F48011C3F3130343F4801301FB02440F
:1003500000FB034E840A970A44EA815447EA835714
:10036000A4FB076802958D0A05FB07854FEA932CCD
:1003700004FB0C542705029D4FEA065847EA16373E
:10038000B5EB08056EEB070C870E920E47EA811756
:1003900042EA8312A7FB0201B6EB0B0164EB0004F7
:1003A0002B0D43EA0C335E1844EB1C50DA465146E1
:1003B000E7FB0201C5F313044FEA0B3343EA14537E
:1003C0004FEA0432019C43EA0603A4F10C040294B0
:1003D000009CCDE900B400F0DBF803B0BDE8F08F7D
:1003E00000200146F9E72DE9F04D81EA030404F00D
:1003F000004B21F0004514464FF0000A23F0004165
:1004000050EA050220D054EA01021DD0C5F30A5774
:100410000246C5F31303C1F31300C1F30A5640F4B7
:10042000801543F48013A7EB0608101BD64608F28C
:10043000FD3873EB050002D308F1010801E09218C2
:100440005B41B8F1000F03DA00200146BDE8F08DF2
:1004500000204FF48011064684460EE0171B73EB14
:10046000050705D3121B63EB050306434CEA010C99
:1004700049084FEA300092185B4150EA0107EDD17C
:1004800052EA030012D082EA040083EA050108431D
:1004900005D0101BAB4106D20122002306E000224A
:1004A0004FF0004302E06FF0010253101AEB060018
:1004B0004CEB085110EB0A0041EB0B01BDE8F04D8D
:1004C00000F057B830B50B46014600202022012429
:1004D00009E021FA02F59D4205D303FA02F5491B12
:1004E00004FA02F52844151EA2F10102F1DC30BD28
:1004F0002DE9F05F0546002092469B468846064659
:10050000814640241BE0284641464746224600F0EB
:1005100020F853465A46C01A914110D31146184646
:10052000224600F06DF92D1A67EB01084F4622466E
:100530000120002100F064F917EB00094E41201E54
:10054000A4F10104DFDC484631462A464346BDE8B3
:10055000F09F202A04DB203A21FA02F000217047A4
:1005600021FA02F3D040C2F120029140084319461B
:10057000704710B5141E73F1000408DA401C41F1F5
:10058000000192185B411A4301D120F0010010BD17
:100590002DE9F04D92469B4611B1B1FA81F202E08D
:1005A000B0FA80F22032904600F02AF904460F4655
:1005B00040EA0A0041EA0B0153465A46084313D069
:1005C000114653EA010019D0C8F140025046FFF726
:1005D000C0FF05460E4650465946424600F010F907
:1005E000084305D0012004E020463946BDE8F08DDF
:1005F0000020054346EAE0762C4337430A9863051A
:10060000E40AA0EB08000022FD0A44EA47540A303D
:1006100002D500200146E9E7010510196941DDE92D
:10062000084500196941BDE8F04DA2E72DE9FE4FEC
:10063000804681EA0300C00F0C46009021F0004183
:1006400023F00045B8EB0200A94105D240462146FF
:1006500090461C460B46024623F00040104347D00C
:10066000270DC7F30A00C3F30A510290401A019004
:1006700040286BDAC3F3130040F4801B00989246C5
:1006800020B10023D2EB030A63EB0B0B0198594610
:10069000C0F14002504600F0B3F806460D46504601
:1006A0005946019A00F0BBF810EB080061410024A4
:1006B00087EA115284EAE7731A4340D0009A62B382
:1006C000019A012A4FEA075215DC001B61EB020177
:1006D0004FF0004202EA0752CDE90042001C41F50A
:1006E000801132462B46FFF753FF03B0BDE8F08F71
:1006F00040462146F9E7001B61EB0201001C41F571
:10070000801300185B412018A2F5001747EB030186
:1007100040EAD570B6196D4111E06D084FEA360612
:1007200045EAC0754FEA0752001B61EB0201001C4D
:1007300041F5801149084FEA300000195141324615
:100740002B4603B0BDE8F04FFFF713BF009801221E
:1007500040000023D0EB020263EBE07300982146D7
:100760004FEAE074B8EB000061EB0401E9E783F0C5
:1007700000435BE781F0004158E7C1F30A52C1F33F
:10078000130140F2FF3341F480119A4202DA002053
:100790000146704740F233439A42A2F2334202DCF0
:1007A0005242FFF7D6BE00F02BB8000030B5041E51
:1007B00071F1000404DB4FF00044404264EB01019E
:1007C000141E73F1000405DB1C464FF00043524237
:1007D00063EB0403994208BF904230BD064C074DBD
:1007E00006E0E06840F0010394E807009847103401
:1007F000AC42F6D3FFF7D2FC4865000868650008F4
:10080000202A04DB203A00FA02F1002070479140D0
:10081000C2F1200320FA03F3194390407047202AC5
:1008200006DBCB17203A41FA02F043EAE07306E018
:1008300041FA02F3D040C2F1200291400843194628
:10084000704770B58C1810F8015B15F0070301D1E3
:1008500010F8013B2A1106D110F8012B03E010F823
:10086000016B01F8016B5B1EF9D12B0705D4002346
:10087000521E0DD401F8013BFAE710F8013BCB1AE8
:10088000921C03E013F8015B01F8015B521EF9D5DD
:10089000A142D8D3002070BD10B50446044A32F8F6
:1008A0001410044A52F82400012200F0BFF910BDD0
:1008B000206500083000002000BFFEE7704710B53B
:1008C0004FF4005000F0B8F810BD10B50020FFF74D
:1008D000E3FF03F067F910BD31B5002400F0ACF977
:1008E000044600BF00F0A8F9001B00998842F9D324
:1008F00038BD0000F0B50C46002500220023002181
:1009000081E0012606FA01F504EA0502AA4279D13E
:1009100006684FEA410C032707FA0CF7BE4306604E
:10092000CF0800F1200656F827604F074FEAD76C32
:100930000F2707FA0CF7BE434FEAD10C00F120074E
:1009400047F82C6086684FEA410C032707FA0CF73A
:10095000BE438660476801268E40B7434760C6683D
:100960004FEA410C032707FA0CF7BE43C660284E36
:100970008F0856F827308E07370F0F26BE403340BA
:10098000244EB04201D1002614E0234EB04201D1E2
:1009900001260FE0214EB04201D102260AE0204E8E
:1009A000B04201D1032605E01E4EB04201D104261B
:1009B00000E005268F073F0FBE409E4222D18E07E2
:1009C000370F0F2606FA07F3114E8F0856F82760E7
:1009D0009E430F4F4FEA910C47F82C60124E366839
:1009E0009643114F3E603E1D366896433F1D3E6064
:1009F0003E1D366896433F1D3E603E1D3668964359
:100A00003F1D3E60491C1029FFF47BAFF0BD000084
:100A10000838014000000240000402400008024083
:100A2000000C024000100240003C01400121014A3C
:100A3000116070470000002010B5044604480068AB
:100A4000204020B1024804602046FFF7EFFF10BDB0
:100A5000143C0140F8B503460A4600250024002056
:100A60000021CBE0012606FA01F5166806EA050426
:100A7000AC4271D15668022E02D05668122E13D1A4
:100A8000CF0803F1200656F827004E07F70E0F2671
:100A9000BE40B0434F07FF0E1669BE403043CF083B
:100AA00003F1200646F8270018684F000326BE40D1
:100AB000B043167906F003064F00BE40304318607D
:100AC0005668012E08D05668022E05D05668112EA1
:100AD00002D05668122E13D198684F000326BE40EC
:100AE000B0434F00D668BE40304398605868012636
:100AF0008E40B0431679C6F300168E4030435860DE
:100B0000D8684F000326BE40B0434F009668BE40F1
:100B10003043D860566806F08056B6F1805F6CD1DD
:100B200000BF384E366846F48046364F3E603E463B
:100B3000366806F48046009600BF00BF324E8F082C
:100B400056F827008E07370F0F26BE40B0432F4EB2
:100B5000B34202D1002615E04FE02D4EB34201D141
:100B600001260FE02B4EB34201D102260AE02A4EA5
:100B7000B34201D1032605E0284EB34201D1042639
:100B800000E005268F073F0FBE4030431E4E8F0802
:100B900046F82700224E3068A043566806F4803697
:100BA000B6F5803F00D120431D4E3060361D3068C1
:100BB000A043566806F40036B6F5003F00D1204346
:100BC000174E361D3060361D3068A043566806F457
:100BD0008016B6F5801F00D12043114E08363060D4
:100BE000361D3068A043566806F40016B6F5001F9F
:100BF00000D120430A4E0C363060491C1029FFF406
:100C000031AFF8BD443802400838014000000240CE
:100C10000004024000080240000C024000100240A4
:100C2000003C014042694A40426170470AB181611B
:100C300001E00B04836170470148006870470000C1
:100C40002C00002002480068401C014908607047E1
:100C50002C00002010B50D48006840F400700B49CE
:100C600008600846006840F4806008600846006834
:100C700040F480700860032000F078F8002000F055
:100C800007F800F017F8002010BD0000003C0240FB
:100C900070B5044600F0A8FA4FF47A71B0FBF1F594
:100CA000284600F059FD00222146501E00F01FF892
:100CB000002070BD7047000000BF00F01F0201213E
:100CC0009140034A430942F8231000BF70470000D7
:100CD00080E100E000BF00F01F02012191404209C5
:100CE000920002F1E022C2F8001100BF70472DE926
:100CF000F05F80460D461646002701F0EFF80746E4
:100D000039462A46334601F00700C0F1070ABAF116
:100D1000040F02D94FF0040A01E0C0F1070AD146DE
:100D200000F1040ABAF1070F02D24FF0000A01E005
:100D3000A0F1030AD4464FF0010A0AFA09FAAAF10F
:100D4000010A0AEA020A0AFA0CFA4FF0010B0BFA3E
:100D50000CFBABF1010B0BEA030B4AEA0B04214637
:100D6000404601F0C3F8BDE8F09F000000BF00F06E
:100D70000702064B19684FF6FF031940044B0B435B
:100D800043EA0221014B196000BF70470CED00E0FF
:100D90000000FA05F8B5044600250026207800F08A
:100DA000010070B300205F498866FFF745FF0546E4
:100DB00006E0FFF741FF401B642801D90320F8BD7E
:100DC00059480068C0F3C0600028F2D147F6C071EE
:100DD00091FAA1F1B1FA81F1606888404FF0E042E8
:100DE00092FAA2F2B2FA82F2A168914008434E4907
:100DF0008431086001204B498866FFF71DFF0546D6
:100E000007E00CE0FFF718FF401B642801D903201E
:100E1000D5E745480068C0F3C0600028F2D02078CC
:100E200000F0020002287BD100BF3F48403000683C
:100E300040F080503C49403108600846006800F0AE
:100E40008050009000BF00BF3848006840F48070B8
:100E500036490860FFF7F0FE054606E0FFF7ECFEB6
:100E6000401B642801D90320A9E73048006800F43A
:100E700080700028F2D02C487030006800F4407078
:100E8000A18901F4407188424AD027487030006837
:100E900020F440760120264908600020086022489E
:100EA0007030066006F0020098B1FFF7C5FE0546F7
:100EB00008E0FFF7C1FE401B41F28831884201D9AA
:100EC00003207CE7184870300068C0F34000002819
:100ED000EFD000BFA08900F44070B0F5407F0CD186
:100EE00011480830006820F4F810124AE1681140F7
:100EF00008430D490831086007E00B4808300068D6
:100F000020F4F8100849083108600748703000687C
:100F1000A189C1F30B01084303497031086000BF88
:100F200000204CE7000047420038024000700040BB
:100F3000400E4742FFFCFF0F70B504460E460025E9
:100F4000A748006800F00F00B0426FD2A4490E70AD
:100F50000846006800F00F00B04201D0012070BDCB
:100F6000207800F00200022807D19E48006820F097
:100F7000F000A16808439B490860207800F0010058
:100F800000283ED06068012807D1964808380068DC
:100F9000C0F34040B8B90120E1E76068022802D000
:100FA0006068032807D18F4808380068C0F34060A4
:100FB00048B90120D3E78B4808380068C0F34000E7
:100FC00008B90120CBE78748006820F0030061687A
:100FD000084384490860FFF72FFE05466068012832
:100FE00010D108E0FFF728FE401B41F2883188420B
:100FF00001D90320B3E77B48006800F00C00042807
:10100000F0D1CDE06068022811D108E0FFF714FEAE
:10101000401B41F28831884201D903209FE7714883
:10102000006800F00C000828F0D1B9E024E0606806
:10103000032810D108E0FFF7FFFD401B41F2883183
:10104000884201D903208AE76648006800F00C0056
:101050000328F0D1A4E008E0FFF7EEFD401B41F2C9
:101060008831884201D9032079E75E48006800F0A2
:101070000C000028F0D193E0207800F00200022854
:1010800007D15848006820F0F000A168084355498E
:101090000860207800F00100002877D060680128FF
:1010A00007D1504808380068C0F34040B8B9012063
:1010B00055E76068022802D06068032807D14948D4
:1010C00008380068C0F3406048B9012047E7454848
:1010D00008380068C0F3400008B901203FE74148E4
:1010E000006820F00300616808433E490860FFF78C
:1010F000A3FD05466068012810D108E0FFF79CFDBC
:10110000401B41F28831884201D9032027E7354846
:10111000006800F00C000428F0D137E06068022875
:1011200010D108E0FFF788FD401B41F2883188426A
:1011300001D9032013E72B48006800F00C000828B1
:10114000F0D123E06068032810D108E0FFF774FDB8
:10115000401B41F28831884201D90320FFE6214833
:10116000006800F00C000328F0D10FE008E0FFF762
:1011700063FD401B41F28831884201D90320EEE62D
:101180001848006800F00C000028F0D114490E70D7
:101190000846006800F00F00B04201D00120DEE6F2
:1011A000207800F00400042807D10E48006820F4DD
:1011B000E050E16808430B490860207800F008001F
:1011C000082808D10748006820F46040216940EAF7
:1011D000C100044908600020FFF75AFD0020BEE668
:1011E000003C02400838024010B500F045F80949BB
:1011F000096801F0F001F02292FAA2F2B2FA82F24A
:10120000D140054A515CC84004490860084600685E
:1012100010BD0000083802401065000828000020BA
:1012200010B5FFF7E1FF0749096801F4E0514FF4F9
:10123000E05292FAA2F2B2FA82F2D140024A515C32
:10124000C84010BD083802401065000810B5FFF70F
:10125000CBFF0749096801F460414FF4604292FAFC
:10126000A2F2B2FA82F2D140024A515CC84010BDEB
:10127000083802401065000870B5002100220023E4
:101280000020274C246804F00C0424B1042C04D062
:10129000082C41D103E0234840E023483EE0204CA5
:1012A000241F246804F03F011D4C241F246804F40B
:1012B000800484B11C4CB4FBF1F5194C241F246844
:1012C00047F6C076344096FAA6F6B6FA86F6F440AB
:1012D00005FB04F20FE0134CB4FBF1F5104C241F96
:1012E000246847F6C076344096FAA6F6B6FA86F633
:1012F000F44005FB04F20A4C241F246804F4403433
:101300004FF4403595FAA5F5B5FA85F5EC40641C27
:101310006300B2FBF3F001E0024800BF00BF70BD04
:10132000083802400024F40000127A0038B5044660
:101330000025207800F00100002866D0F6480068FB
:1013400000F00C0004280DD0F348006800F00C00F9
:10135000082813D1F048001F006800F48000B0F5A1
:10136000800F0BD1EC4808380068C0F340400028DB
:101370004BD06068002848D1012038BD0020E649E4
:10138000891F0870FFF758FC054608E0FFF754FC7A
:10139000401B41F28831884201D90320EDE7DE4845
:1013A00008380068C0F340400028EFD12079DA49BE
:1013B000891F08706068A0B1FFF73EFC054608E091
:1013C000FFF73AFC401B41F28831884201D90320E3
:1013D000D3E7D14808380068C0F340400028EFD078
:1013E00013E0FFF729FC054608E0FFF725FC401B4A
:1013F00041F28831884201D90320BEE7C648083847
:101400000068C0F340400028EFD1207800F00200CF
:10141000022869D1C048006800F00C0058B1BE48ED
:10142000006800F00C00082821D1BB48001F0068AC
:1014300000F48000D8B9B84808380068C0F340000C
:1014400020B1E068012801D0012096E7B2480838B1
:10145000006820F0F800F82292FAA2F2B2FA82F2C2
:10146000216991400843AC49083908603CE0E068D4
:1014700028B30120A9490860FFF7DEFB054606E016
:10148000FFF7DAFB401B642801D9032075E7A24867
:1014900008380068C0F340000028F1D09E480838A2
:1014A000006820F0F800F82292FAA2F2B2FA82F272
:1014B00021699140084398490839086014E00020E8
:1014C00096490860FFF7B8FB054606E0FFF7B4FB56
:1014D000401B642801D903204FE78F480838006873
:1014E000C0F340000028F1D1207800F0080008285F
:1014F0002CD16069A8B1012089490860FFF79CFBE5
:10150000054606E0FFF798FB401B642801D903203D
:1015100033E781486C300068C0F340000028F1D008
:1015200014E000207E490860FFF786FB054606E0D0
:10153000FFF782FB401B642801D903201DE7764892
:101540006C300068C0F340000028F1D1207800F032
:10155000040004286DD100BF6F483830006840F0A7
:1015600080506D49383108600846006800F08050AE
:10157000009000BF00BF6B48006840F4807069496C
:101580000860FFF759FB054606E0FFF755FB401BD7
:10159000642801D90320F0E66248006800F48070F6
:1015A0000028F2D000205C4968310870FFF744FB46
:1015B000054608E0FFF740FB401B41F288318842B6
:1015C00001D90320D9E6544868300068C0F34000D0
:1015D0000028EFD1207A504968310870A068A0B186
:1015E000FFF72AFB054608E0FFF726FB401B41F208
:1015F0008831884201D90320BFE647486830006837
:10160000C0F340000028EFD013E0FFF715FB0546BC
:1016100008E0FFF711FB401B41F28831884201D9F5
:101620000320AAE63C4868300068C0F34000002868
:10163000EFD1A069F0B33848006800F00C0008282A
:1016400072D0A069022850D1002034490866FFF703
:10165000F3FA054606E0FFF7EFFA401B642801D9CC
:1016600003208AE62C4808380068C0F34060002850
:10167000F1D1D4E90701084347F6C07292FAA2F209
:10168000B2FA82F2616A914008430122A16AC2EB78
:1016900051014FF4403292FAA2F2B2FA82F2914032
:1016A00008434FF0706292FAA2F2B2FA82F2E16A53
:1016B000914000E03AE008431749091F0860012003
:1016C00016490866FFF7B8FA054606E0FFF7B4FAD0
:1016D000401B642801D903204FE60F4808380068F2
:1016E000C0F340600028F1D020E000200B490866DC
:1016F000FFF7A2FA054606E0FFF79EFA401B6428B2
:1017000001D9032039E6044808380068C0F3406076
:101710000028F1D10AE007E0083802400000474203
:10172000800E474200700040012026E6002024E69B
:10173000042808D14FF0E021096941F004014FF07D
:10174000E022116107E04FF0E021096921F0040176
:101750004FF0E0221161704770B504462546681EBF
:10176000B0F1807F01D301200FE0681E4FF0E0212F
:1017700048610F214FF0FF3000F0B8FB00204FF020
:10178000E021886107200861002070BD7047704724
:10179000704710B5044620680069C0F34000D8B116
:1017A0002068C068C0F34000B0B16FF0020021684B
:1017B0000861012020762068806900F0030018B1DC
:1017C0002046FFF7E5FF05E0204600F0ADF8204693
:1017D00000F0ABF80020207620680069C0F380009C
:1017E000D8B12068C068C0F38000B0B16FF00400C9
:1017F00021680861022020762068806900F440702A
:1018000018B12046FFF7C4FF05E0204600F08CF831
:10181000204600F08AF80020207620680069C0F396
:10182000C000D8B12068C068C0F3C000B0B16FF08C
:10183000080021680861042020762068C06900F053
:10184000030018B12046FFF7A3FF05E0204600F093
:101850006BF8204600F069F80020207620680069C7
:10186000C0F30010D8B12068C068C0F30010B0B158
:101870006FF0100021680861082020762068C06998
:1018800000F4407018B12046FFF782FF05E02046C3
:1018900000F04AF8204600F048F800202076206842
:1018A000006900F0010058B12068C06800F0010034
:1018B00030B16FF0010021680861204600F036F871
:1018C00020680069C0F3C01058B12068C068C0F338
:1018D000C01030B16FF08000216808612046FFF72A
:1018E00055FF20680069C0F3801058B12068C068B7
:1018F000C0F3801030B16FF04000216808612046CD
:1019000000F01AF820680069C0F3401058B1206850
:10191000C068C0F3401030B16FF02000216808614A
:101920002046FFF734FF10BD7047704710B50446DE
:10193000204602F0A1FE10BD704710B504460CB958
:10194000012010BD022084F83900204600F0D6F8AE
:101950000020E06384F8390000BF84F8380000BF3D
:1019600000BFEEE710B50446FEF7AFFF10BDF8B5B7
:101970000446002500262068006800F00105206864
:10198000C06800F480766DB166B100BF2068006861
:10199000009020684068009000BF00BFE06B40F0FE
:1019A0000100E06320680068C0F3400520684069DA
:1019B00000F001066DB166B100BF206800680090BC
:1019C00020684068009000BF00BFE06B40F004005A
:1019D000E06320680068C0F380052068406900F07B
:1019E00001066DB166B100BF2068006800902068F4
:1019F0004068009000BF00BFE06B40F00200E06371
:101A000020680068C0F3C0052068406900F0010646
:101A10006DB166B100BF2068006800902068406822
:101A2000009000BF00BFE06B40F00800E06320685A
:101A30000068C0F340152068C06800F020061DB1A2
:101A400016B1204602F0ECFA20680068C0F3C01519
:101A50002068C06800F080061DB116B1204602F073
:101A60002DFC20680068C0F380152068C06800F075
:101A700040061DB116B1204602F052FAE06B28B1C3
:101A8000012084F839002046FFF76CFFF8BD10B53F
:101A900004460CB9012010BDA06900B100E000BFF0
:101AA00094F8390028B9002084F83800204600F066
:101AB00049F8022084F839002068C06820F40050FA
:101AC0002168C860204602F0E7FA2068006920F427
:101AD0009040216808612068406920F02A00216850
:101AE00048612068C06840F400502168C860002048
:101AF000E063012084F839000020CCE710B50446EB
:101B00000D48844216D10D48006840F010000B4982
:101B100008600846006820F0100008604915084871
:101B2000FEF7E8FE4FF480610548FEF7E3FE25204E
:101B3000FFF7C2F810BD0000B812002024380240A0
:101B40000000024010B586B004463348844261D19B
:101B500000BF3248006840F0010030490860084684
:101B6000006800F00100009000BF00BF00BF084601
:101B7000006840F0010008600846006800F00100BD
:101B8000009000BF00BF00BF24481430006840F040
:101B900010002249143108600846006800F0100067
:101BA000009000BF00BF00BF0846006840F48040BE
:101BB00008600846006800F48040009000BF00BF45
:101BC0004815019002200290002003900720059004
:101BD0000320049001A91248FEF73CFF4FF48060F7
:101BE00001900720059001A90D48FEF733FF4FF43F
:101BF00080500190012003900720059001A908481A
:101C0000FEF728FF002203212520FFF770F825208A
:101C1000FFF760F806B010BDB8120020303802405F
:101C2000000002402DE9F04104460E46154600270B
:101C300094F83970012F01D0122F3BD106B12DB984
:101C40001FA003F06DF90120BDE8F08100BF94F8FA
:101C50003800012801D10220F6E7012084F838007D
:101C600000BFA662A585E5850020E06394F83900F1
:101C7000122803D1322084F8390002E0222084F8AF
:101C800039002068C06840F480702168C86020680E
:101C9000406940F001002168486100BF002084F8DD
:101CA000380000BF2068C06840F020002168C8608C
:101CB0000020C9E703A003F033F90220C4E70000C5
:101CC000310000003200000010B504460020154924
:101CD000087002F04BF872B61349144803F0B8FFCD
:101CE00062B602F027F8114803F067FE40B1012008
:101CF0000F490870012201030E48FEF797FF0FE01D
:101D00000D48007860B9012207490C48FFF78AFFA7
:101D10000B4908700846007810B901200149087085
:101D200010BD0000A20000207400002080120020DE
:101D30007E01002000000240A1000020B812002017
:101D4000690100202DE9F04104460D4616469846EB
:101D5000002794F83970012F01D0222F4CD105B102
:101D600016B90120BDE8F08100BF94F838000128C1
:101D700001D10220F6E7012084F8380000BF0020DE
:101D8000E06394F83900222803D1322084F8390026
:101D900002E0122084F83900A684E6840FE0E08C8B
:101DA000401EE084434600228021204602F0BEFA15
:101DB00008B10320D6E715F8010B21684860E08CD4
:101DC0000028ECDC434600224021204602F0AEFA17
:101DD00008B10320C6E794F83900322803D1222045
:101DE00084F8390002E0012084F8390000BF0020A7
:101DF00084F8380000BFB5E70220B3E70121014AAB
:101E0000117070478A00002000BFFEE700B587B060
:101E100000BF2C48006840F004002A4908600846CA
:101E2000006800F00400019000BF00BF00BF08463A
:101E3000006840F0800008600846006800F08000FC
:101E4000019000BF00BF00BF0846006840F00100DD
:101E500008600846006800F00100019000BF00BF64
:101E600000BF0846006840F00200086008460068AD
:101E700000F00200019000BF00BF4FF4005002903C
:101E8000114803900020049002A91048FEF7E2FDDB
:101E90000C2002900220039000200490059007205F
:101EA000069002A90A48FEF7D5FD202002900120E5
:101EB000039000200490059002A90548FEF7CAFD92
:101EC00007B000BD30380240000012100008024088
:101ED0000000024000BFFEE77047000002480068B3
:101EE000C0F30220704700000CED00E010B50028A0
:101EF00007DA0A07140E054A00F00F031B1FD4541B
:101F000003E00A07130E024A135410BD18ED00E057
:101F100000E400E02DE9FE4306464FF00008C1460C
:101F200096F80080F948007840B9F94801680068DF
:101F3000401CF74A1060F74800F80180F64803F0AB
:101F4000EAFEF6480078002841F01381F048006866
:101F5000801EF049085C0D287ED1ED480068401EC7
:101F6000085C0A28F8D1EE4800780028F4D1ED4842
:101F700000780028F0D1ECA1E648FEF7A9F9002886
:101F800047D0EBA1E348FEF7A3F918B10720E249D7
:101F9000887314E0E9A1DF48FEF79AF918B1082028
:101FA000DD4988730BE001F0E1FE72B6D94801F01B
:101FB000E3FA62B601F0BEFE0020E3490860E348A0
:101FC000007860B972B6D448C0680090D2480EC894
:101FD000DF4803F058FE62B6CF4803F09CFEDD48B0
:101FE000007810B90020D9490870DB48007820B18A
:101FF0000020CC490870D94908700020C449086005
:10200000C448FEF777F905462946C248FEF755F958
:10201000FBE2D3A1BF48FEF75BF900287ED0D2A136
:10202000BC48FEF755F9041E39D020798DF8080018
:1020300060798DF809009DF8090030389DF8081086
:10204000303901EB810100EB4100C94908700846B5
:102050000078B149088100E07FE20220887372B6FF
:10206000AD48C0680090AC480EC8B94803F00BFEFC
:1020700062B6A94803F04FFEB748007820B10020AF
:10208000A8490870B54908700020A1490860AE4908
:1020900008604FF400719F48FEF70FF9B5E2B5A153
:1020A0009C48FEF715F9041E7ED0607A8DF8040076
:1020B000A07A8DF80500E07A8DF80600207B8DF877
:1020C00007009DF805000D2805D19DF80400303863
:1020D000AB49086047E09DF806000D280CD19DF83B
:1020E000050030389DF80410303901EB810100EB18
:1020F0004100A349086036E09DF807000D2815D17E
:102100009DF804003038642110FB01F19DF80500B2
:10211000303800EB800001EB400100E0D2E09DF898
:10212000060030380844964908601CE09DF8040019
:1021300030384FF47A7110FB01F19DF8050030380A
:1021400000EBC00202EB001001EB80019DF80600DD
:10215000303800EB800001EB40019DF8070030387B
:102160000844874908608648006886490860084630
:10217000006818B101208449087007E081480068B0
:1021800020B9002081490870814908700020604909
:1021900008606D4908607048007850B100206149BE
:1021A00008706E49087000E009E07A4908607A49D1
:1021B00008704FF400715748FEF77FF825E277A1C9
:1021C0005448FEF785F870B374A15248FEF780F8C2
:1021D00004460320504988732046FEF78BF8851E7D
:1021E0002A46A11C6E48FEF74FF872B64A48C068EE
:1021F000009049480EC8564803F045FD62B646486F
:1022000003F089FD5448007820B10020454908704A
:102210005249087000203E4908604FF400713D4863
:10222000FEF74BF8F1E1FFE75E48007810B35E4837
:10223000007888B35D480078002804DD5B480078AA
:10224000401E5A4908700020564908705849594A9A
:1022500012788854574800785749087000204C4934
:1022600008705149087001205449087000204749FE
:10227000087011E00120284908730520887372B6A0
:102280002548C068009024480EC8314803F0FBFC84
:1022900062B6214803F03FFD0020424908701C4807
:1022A00001681C48FEF709F8002019490860264912
:1022B00008602948007820B100201A490870274991
:1022C0000870A1E33EA11348FEF702F800281CD0D5
:1022D0003DA11048FDF7FCFFB0B141A14D4802F00F
:1022E0002FFE4C48FEF706F885B24FF47A732A4663
:1022F00048494948FFF726FD00202A4908702A4925
:102300000870224908709FE088E0B0E0A800002033
:10231000980100200C030020081C00202801002048
:10232000B1000020B700002057494E443A00000099
:102330002B57494E443A36373A0000002B57494E46
:10234000443A36383A000000F8000020B600002079
:1023500094120020BA000020AA000020AF00002044
:102360000D0A4F4B0D0A000049443A2000000000BE
:10237000C8000020444154414C454E3A2000000022
:10238000CC000020D0000020A600002097000020F4
:10239000AD0000201C0100206C100020203D20001A
:1023A0008F130020B4000020B50000206A01002037
:1023B0006B010020600100205F0100205A01002015
:1023C0004552524F520000000D0A4552524F523AA8
:1023D0002050656E64696E6720646174610D0A0047
:1023E0000D0A4552524F523A20536F636B65742069
:1023F000636F756C64206E6F7420626520636C6F10
:102400007365642E2E50454E44494E472044415436
:10241000410D0A004C070020F81200200620FE495A
:10242000887372B6FC48C0680090FB480EC8FB4831
:1024300003F029FC62B6F84803F06DFCF848007818
:1024400010B10020F64908700020F6490860F649EE
:102450000860F648007820B10020F5490870F54979
:1024600008704FF40071F448FDF727FFCDE0F3A1A9
:10247000F148FDF72DFFE8B3F2A1EF48FDF728FF83
:1024800004461CB10020F149087002E00120EF4928
:102490000870EFA1E848FDF71BFF04461CB10020BF
:1024A000EC49087002E00120EA4908700420DA498A
:1024B000887372B6D848C0680090D7480EC8D7480D
:1024C00003F0E1FB62B6D44803F025FCD74800785E
:1024D00020B10020D6490870D64908700020D149A3
:1024E0000860D548FDF706FF05462946D248FDF7A6
:1024F000E4FEE6E6FFE7CD480078D0B1CD480078AD
:10250000B8B1D5480078A0B9CB49D44802F018FD3D
:10251000D248FDF7EFFE85B24FF47A732A46CF49D1
:10252000CF48FFF70FFC0020C24908700120CD49B9
:102530000870BF480078002867D1CB480078002891
:1025400063D00020B7490860BB48FDF7D3FE0546BD
:102550002946B948FDF7B1FE57E0C4480078002885
:102560003DD0C3A1B448FDF7B3FE002827D1C2A1D6
:10257000B148FDF7ADFE10BBC4A1AF48FDF7A8FE02
:10258000E8B9C7A1AC48FDF7A3FEC0B9C8A1AA48E5
:10259000FDF79EFE98B9CAA1A748FDF799FE70B94C
:1025A000CDA1A548FDF794FE48B9D2A1A248FDF7F8
:1025B0008FFE20B9D4A1A048FDF78AFE28B30120E0
:1025C000D7490870D74908700020A8490870D64933
:1025D0000870D64908600620D549086015E0914882
:1025E0000068401E9449085C09280ED18D48006897
:1025F000801E085C3A2808D18A480068C01E085C22
:10260000312802D10120CB490870CB48007800283E
:102610007ED1CA4800780028FAD1C948007800283D
:10262000F6D1C048007800285ED08E480078002897
:102630005AD1BE4800680028F6D0BC480068C1499D
:1026400008607848006809680844B0F5007F1DD329
:1026500074480068BB4909680844A0F2FF1572B6C7
:102660002946B94803F064FB62B66E49096840F236
:10267000FF12511A88192946FDF71FFE69480068A4
:1026800040F2FF11081AAF49086000BF6A49654A65
:1026900012688818AB490A68A349FDF7F5FD61483F
:1026A0000068A849096808445E490860084600684F
:1026B000B0F5007F0ED9A5A1684802F041FC67483B
:1026C000FDF718FE85B24FF47A732A4663496448D1
:1026D000FFF738FBA3A15848FDF7FAFD28B1002009
:1026E000544908705C49087053E051480078E0BBD9
:1026F0008B480078C8BB50480078B0B34E4800788B
:102700000D2846D14C4840780A2842D14A4800E07A
:10271000E2E280780D283CD001204F490870AFF2EA
:10272000BC314548801CFDF7D3FD041E2ED0424825
:10273000201A851C8DA14048801CFDF7C9FD50B1B1
:102740003D494819AFF2E831FDF7C2FD044614B126
:102750003948201A851D33480068401B12D072B6D4
:1027600030480068411B784800E012E003F0E0FACE
:1027700062B62C4A1268511B2F4A5019FDF79DFD75
:102780002848056000203449087000BF012029490D
:1027900008702848007800283BD124480078002899
:1027A00037D0624800680028FAD00120204908701C
:1027B0001D4800686349096808441B49086069A10D
:1027C0001D48FDF785FD0446002C23D01548006800
:1027D000801E1949085C0D281CD112480068401E53
:1027E000085C0A28F8D164A11348FDF771FD041EA6
:1027F00011D0E07E60B11048251A0A48016805F141
:102800001B000F1A72B639464F4803F091FAC1E027
:10281000C2E0DEE138E1D0E0081C00209412002084
:102820009700002098010020F8000020AA00002056
:10283000B7000020AF0000200C0300204750494F94
:10284000200000003D20302C000000006601002028
:102850006F75740067010020BB0000204C0700204A
:10286000F8120020B00000209E0000208F00002001
:10287000323030204F4B0D00343030204261642024
:10288000526571756573740D00000000343031209D
:10289000556E617574686F72697A65640D00000029
:1028A00034303320466F7262696464656E0D0000D7
:1028B000343034204E6F7420466F756E640D000006
:1028C00034303820526571756573742054696D65B4
:1028D0006F75740D0000000035303020496E74654E
:1028E000726E616C20536572766572204572726FEC
:1028F000720D0000353032204261642047617465FA
:102900007761790D0000000035303420476174652F
:102910007761792054696D656F75740D0000000052
:10292000B1000020A80000206C1000201C01002035
:1029300020010020B3000020580100205D0100208C
:102940005E01002018010020801200200D0A466957
:102950006C6C70747220636F727275707465642130
:10296000210D0A004552524F523A20004441544131
:102970004C454E3A000000000D0A4552524F523A63
:1029800020546F6F206D616E7920736F636B657477
:10299000730D0A0062B600BF0020F8490860F849CC
:1029A00008604FF40071F748FDF787FC0120F649F5
:1029B00008700D20F5490870DBE3AFF2F451F148DF
:1029C000FDF786FC041E20D0E07D68B1ED48251A95
:1029D000EA48016805F117000F1A72B63946EC484B
:1029E00003F0A6F962B600BF0020E4490860E4499C
:1029F00008604FF40071E348FDF75FFC0120E249F5
:102A000008700D20E1490870B3E3E2A1E84802F044
:102A100097FAE748FDF76EFC85B24FF47A732A46C1
:102A2000E349E448FFF78EF90020D5490860E24900
:102A30000860E2490860E2490870E2490870E2492A
:102A40000870E2490870E2490870E2490870E249FA
:102A500008600520E14908600020C8490860E04995
:102A60000870E048007848B10020DE490870DE496F
:102A700008600120DD49087001F072FD4FF400711B
:102A8000C048FDF71AFC74E3BD480068CB490968EB
:102A900088427AD3BA480068C8490968884218D978
:102AA000B7480068C5490968451A72B62946B8484A
:102AB00003F03EF962B6B1490968491BB14A88186A
:102AC0002946FDF7FAFBAD480068401BAB4908609A
:102AD00000BFAA480068C6490860B8480068C549F0
:102AE0000860A648A7490268C348FDF7CDFB00204F
:102AF000A2490860A2490860AF490860B34908705C
:102B0000B1490870B3490870B1490870B5480078F8
:102B1000C0B10020B4490860B8490870AE480068E8
:102B200020B1AD480068401EAB490860AA48006863
:102B300020B90120AD49087001F012FD0020B04914
:102B4000087009E00120AE490870AE480078AB4932
:102B500008700120AC490870002099490870A0490C
:102B6000087001F0FDF80120A84908709D48007820
:102B700020B10020934908709A4908704FF4007101
:102B80008048FDF79AFBF4E2FFE77C480068B0F567
:102B9000FF7F1DD9894800689649086040F2FF1000
:102BA000934908607548774902689348FDF76CFBC4
:102BB00000207249086005208849086001F0D0F8BB
:102BC0004FF400716F48FDF778FB01208F490870C2
:102BD000CFE28F48007800287ED08E480068002819
:102BE000FAD001207E49087066497C4A1268114477
:102BF000881FAFF69401FDF76BFB041E4ED0E07901
:102C0000B8B16048251A5D480168A81D0F1A72B650
:102C100039465F4803F08CF862B65A492944C81D0A
:102C20003946FDF74AFB55480068C01B5349086008
:102C300000BF5248534902686F48FDF725FB4F48D3
:102C400000687549086001204F49087000206149FB
:102C500008706F49087001F083F800204B49087034
:102C60005F490870594908705749087055490870FC
:102C700006205A490860414801684248FDF71DFB9B
:102C800000203E4908606548007818B10120644979
:102C9000087035E001206349087031E039494F4A36
:102CA00012681144881FAFF6E801FDF711FB18B355
:102CB0000120354908700D2034490870002048492A
:102CC000087044490870414908703F4908702B4911
:102CD00008600620414900E0ACE0086000204C4953
:102CE00008704FF400712748FDF7E7FA4B48007869
:102CF00018B100204A49087002E0002049490870D4
:102D00001E480068354908601C48006840F2FF1101
:102D1000884231D119481B4902683748FDF7B4FA97
:102D200041493548D0F8F9210A60B0F8FD018880A2
:102D300031480021C0F8F911A0F8FD114FF40071DD
:102D40001048FDF7BAFA0F4837490A6802608988C7
:102D50008180354800210160818006200749086094
:102D60001E49086040F2F9102B4908602B48007892
:102D700018B101202A4908705BE057E09801002053
:102D8000F80000200C030020800100207F010020BB
:102D9000801200200D4552524F5220445552494E48
:102DA0004720534F434B20524541440D0A00000039
:102DB0004C070020F8120020CC000020D800002092
:102DC000AA00002097000020AF000020B0000020E3
:102DD000DC000020A80000201001002020010020BD
:102DE000B7000020A9000020E8000020A500002076
:102DF00004010020080100200C050020D60000205E
:102E0000AB000020D5000020B400002058010020B5
:102E1000B10000201C010020C0000020B2000020F2
:102E20005E0100205D010020750000200120D249D4
:102E300008709EE1D148007800287DD1D048007804
:102E4000002879D0CF480068801ECF49085C0D2843
:102E500073D1CC480068401E085C0A28F8D1CB48E2
:102E60000078CB490978884268DACAA1C648FDF7DC
:102E70002FFA04468CB1A0798DF80400E0798DF822
:102E800005009DF8050030389DF80410303901EB3D
:102E9000810100EB4100C1490870C0480078BB497E
:102EA000097801EB410202EBC101BD4A126802F848
:102EB0002100BCA1B448FDF70BFA04467CB1E079CF
:102EC0008DF80400207A8DF805009DF80500303853
:102ED0009DF80410303901EB810100EB4109C9F183
:102EE0000000AA49097801EB410202EBC101AC4A9A
:102EF000126802EB81014860ACA1A348FDF7E8F934
:102F000004464CB30720AB4908701FE0A94800787D
:102F1000225C9E48007800EB400101EBC000A04914
:102F2000096801EB80000830A2490978C91F4254A2
:102F3000A0480078401C02E0C0E0B2E074E09D4987
:102F4000087008460078232800D104E099480078EA
:102F5000205C2728DAD100BF97A18B48FDF7B8F98C
:102F600004466CB101208949097801EB410202EB6A
:102F7000C1018B4A126802EB810181F826000CE046
:102F800000208249097801EB410202EBC101844A29
:102F9000126802EB810181F8260089A17A48FDF7C9
:102FA00097F904466CB101217848007800EB4002A3
:102FB00002EBC0007A4A126802EB800080F827100A
:102FC0000CE000217148007800EB400202EBC000E9
:102FD000734A126802EB800080F827107AA16A48D1
:102FE000FDF776F904466CB101216848007800EBE2
:102FF000400202EBC0006A4A126802EB800080F8CF
:1030000028100CE000216148007800EB400202EB40
:10301000C000634A126802EB800080F828105B4809
:103020000078401C59490870AFF66C415648FDF7CE
:103030004FF904469CB14FF400715348FDF73DF938
:1030400000205049086001206149087000204C4967
:103050000870604908700D205F49087089E05FA121
:103060004948FDF735F9A0B100205A490870474991
:103070000870444908600120554908700020404903
:103080000870554908704FF400713F48FDF715F975
:103090006FE000203B4908604FF400713A48FDF7AB
:1030A0000CF938480068B0F5FF7F07D90020354992
:1030B00008604FF400713448FDF7FFF82F4800789E
:1030C000F0BB48480078D8B347A1484801F038FF22
:1030D0004648FDF70FF985B24FF47A732A46434903
:1030E0004348FEF72FFE43A12748FDF7F1F80446B9
:1030F00004B343A13D4801F023FF3C48FDF7FAF833
:1031000085B24FF47A732A4638493948FEF71AFED9
:1031100001202F49087000202F490870314908709C
:10312000184908601848FDF7E5F80546294616488D
:10313000FDF7C3F813480068B0F5007F0CD300E03A
:103140000AE000200F4908600F48FDF7D3F8054654
:1031500029460D48FDF7B1F80A480068B0F5FF7F31
:1031600007D900200749086040F2FF110648FDF723
:10317000A4F800BFBDE8FE835D010020AF00002081
:10318000B3000020980100200C0300208C010020D7
:10319000140100204348414E3A0000009D010020E8
:1031A0007C000020525353493A00000053534944D5
:1031B0003A0000009C010020575041200000000010
:1031C00057504132200000005750532000000000AB
:1031D000800100209F0000207F0100204F4B0D0A3E
:1031E00000000000AE0000202A0000004C07002074
:1031F000F8120020436F6D706C657465210000004B
:103200000D0A55706461746520636F6D706C657430
:10321000650D0A0010B572B60F4802F013FC0F4995
:10322000086062B60D48006818B10C480068FEF7E7
:1032300071FE0B48007870B10A480068401C0949CB
:10324000086008460068C82805D9002008600449BD
:1032500008700549087010BD801200207801002018
:10326000B9000020BC0000209700002010B50446E3
:103270002068472871D2DFE800F024282C3031354F
:10328000393A3B3F43474B4F5051555657585C6076
:1032900064686C7175797070707D8198999AA1A538
:1032A000A6AEB2B6BABEC3C8C97070CACBCCCDCEBA
:1032B000CFD07070F07070EEEDECF770EAE9E8E7EF
:1032C000E6000120914908701DE101208F494870F6
:1032D00019E101208D49887015E114E101208B4925
:1032E000887210E101208949C8700CE10BE10AE104
:1032F00001208649087106E101208449487102E1F4
:10330000012082498871FEE001208049C871FAE0FD
:1033100001207E494872F6E0F5E0F4E001207B49A7
:10332000C872F0E0EFE0EEE0EDE0012077490873CD
:10333000E9E0012075494876E5E0012073494873CA
:10334000E1E0012071498876DDE001206F49C8760F
:10335000D9E001206D498873D5E0D3E001206B49A5
:10336000C873D0E0012069490874CCE001206749A6
:103370000872C8E001206549C874C4E06448007858
:10338000401C634908700120624908705F49087554
:1033900061480078012807D100205F4908705F4923
:1033A000087001205E490870ADE0ACE0ABE00120A0
:1033B0005649487500205B490870A4E00120534934
:1033C0008877A0E09FE00020524908704F490875B7
:1033D0000120887597E001204C49C87593E00120D1
:1033E0004A4908768FE00120484948778BE0012060
:1033F0004649C87787E00120444981F8200082E0EF
:103400000120424981F821007DE07CE07BE07AE008
:1034100079E078E077E076E075E0434800780128CD
:1034200004D100204049087040490870207A404982
:10343000087040480978405C20B101203E4908707E
:103440003E4908705FE057E052E04AE045E040E066
:103450000AE039E02FE028E0FFE7207A38490870D9
:103460000120384908704EE0374960680860012043
:1034700036490870314908702C4908703448007882
:1034800040B9A07A01280FD100203249087001F01C
:103490007FF809E0052030490860012022490870C2
:1034A000294800682D4908602DE001202C4908704A
:1034B0002C49087027E001202B49087000202B4977
:1034C0000870284908701EE00120104981F8220088
:1034D00019E001202649087015E001200F49087005
:1034E00011E000200D49087001200D4908700AE024
:1034F00001202049087006E000201E49087000F0F5
:103500000DFC00E000BF00BF10BD00006C130020E8
:10351000620100208E000020990000209B00002006
:103520005C0100209F000020AA000020A8000020CD
:10353000D50000206B010020AB0000209700002088
:10354000610100205B010020E8000020A9000020AC
:103550009E000020A500002020010020D8000020AF
:10356000A300002064010020A400002065010020C9
:103570009C0000209A0000202DE9FC4707463E46AB
:103580004FF000084FF0FF09002E79D0FEA1304621
:10359000FCF79EFE0646002EF7D070798DF80400E9
:1035A000B0798DF805009DF805003A2808D1012072
:1035B000F74908709DF80400303800F0FF090EE06C
:1035C0000020F34908709DF8050030389DF804107C
:1035D000303901EB810100EB410000F0FF09ED48BB
:1035E000C0F800900120EB498873B9F1490F7CD2F3
:1035F000DFE809F0FDFCFBFAF9F8F7F6F5F4F3F271
:10360000F1F0EFEEEDECEBEAE9E8E7E6E5E4E3E222
:10361000E17B7BE0DFDEDDDCDBDAD9D8D7D6D5D4C1
:10362000D3D2D17B7BD0CFCECDCCCB257BCAA6C984
:10363000C87B7B7BC77B7B7B7B7B7B7BC600D6A1F0
:10364000D748FCF745FE044660798DF800009DF8E8
:1036500000003038D349087008460078CD49088109
:103660000120D1490870E07945280AD1207A4E28F6
:1036700007D1607A432804D10120C649C8725EE0B0
:103680004AE2E0798DF80000207A8DF80100607A36
:103690008DF80200A07A8DF803009DF801000D2836
:1036A00004D19DF80000A0F1300843E09DF802002D
:1036B0000D280AD19DF8010030389DF800103039EE
:1036C00001EB810100EB410834E09DF803000D2877
:1036D00014D19DF800003038642110FB01F19DF8F1
:1036E0000100303800EB800000E00EE201EB400109
:1036F0009DF80200303801EB00081BE09DF8000047
:1037000030384FF47A7110FB01F19DF80100303828
:1037100000EBC00202EB001001EB80019DF80200FB
:10372000303800EB800001EB40019DF80300303899
:1037300001EB00089748C0F804804FF00008E5E16D
:10374000B07D8DF80000F07D8DF801009DF801003E
:103750000D2805D19DF800003038944908700BE021
:103760009DF8010030389DF80010303901EB8101DF
:1037700000EB41008D4908708C480078854937E09E
:103780007DE137E04AE140E1BEE1BCE1BAE1B8E108
:10379000B6E1B4E1B2E1B0E1AEE1ACE1AAE1A8E1A9
:1037A000A6E1A4E1A2E1A0E19EE19CE19AE198E119
:1037B00096E194E192E14FE18FE18DE18BE189E1C6
:1037C00087E185E183E181E17FE17DE17BE179E1F1
:1037D00077E175E173E171E16FE16DE16BE169E161
:1037E00067E165E163E161E15FE15DE15BE159E1D1
:1037F00008818BE16E48007888B16EA16F4801F0B6
:103800009FFB6E48FCF776FD1FFA80FA4FF47A733F
:1038100052466A496A48FEF795FABDE8FC8769484E
:10382000007818B100206849086004E00120674969
:1038300008706449087058A15948FCF749FD0446CE
:1038400060798DF800009DF8000030385149887289
:10385000207A8DF80000607A8DF80100A07A8DF84A
:103860000200E07A8DF803009DF800003A2806D1A6
:10387000E0798DF80000207A8DF801002EE09DF8A7
:1038800001003A2809D1E0798DF80000207A8DF8FE
:103890000100607A8DF8020020E09DF802003A28CD
:1038A0000CD1E0798DF80000207A8DF80100607A63
:1038B0008DF80200A07A8DF803000FE09DF8030058
:1038C0003A280BD1E0798DF80000207A8DF80100BC
:1038D000607A8DF80200A07A8DF803009DF801004F
:1038E0003A2805D19DF8000030383949086045E094
:1038F0009DF802003A280CD19DF8010030389DF85F
:103900000010303901EB810100EB410030490860C3
:1039100034E09DF803003A2813D19DF800003038B8
:10392000642110FB01F19DF80100303800EB8000AC
:1039300001EB40019DF8020030380844244908603A
:103940001CE09DF8000030384FF47A7110FB01F153
:103950009DF80100303800EBC00202EB001001EBD3
:1039600080019DF80200303800EB800001EB40013F
:103970009DF8030030380844154908601548006870
:1039800050B31348006828E057494E443A000000FD
:103990008D000020081C0020446174613A00000082
:1039A0000C030020C8000020DC0000206001002083
:1039B000B60000203E3E49470D0A00004C0700209B
:1039C000F8120020B9000020BC0000209700002061
:1039D000EC000020100100200AE0504948605048E7
:1039E0000068401C4E49086000204E4908608DE088
:1039F0004C4800684949486049480068401C4849AB
:103A0000086000204749086080E0012046490870AE
:103A10000020464908704249086077E0002042498A
:103A2000087001204149087041480078012804D1FC
:103A30003D48007808B900F093FD3E480078012821
:103A400009D105203C49086001203C4908703C48E8
:103A500000683C49086059E03BA13E48FCF738FC4F
:103A60000446112505E0615DA5F111003A4A1154A3
:103A70006D1C212DF7DD01203849487446E038A13E
:103A80003448FCF725FC0446112505E0615DA5F1ED
:103A90001100314A11546D1C212DF7DD01202F49F1
:103AA000887433E000BF00BF00BF00BF00BF00BF8D
:103AB00000BF00BF00BF00BF00BF00BF00BF00BF0E
:103AC00000BF00BF00BF00BF00BF00BF00BF00BFFE
:103AD00000BF00BF00BF00BF00BF00BF00BF00BFEE
:103AE00000BF00BF00BF00BF00BF00BF00BF00BFDE
:103AF00000BF00BF00BF00BF00BF00BF00BF00BFCE
:103B000000BF00BF00BF00BF00E000BF00BF4FF418
:103B100000711048FCF7D1FB00BF7EE6081C0020B6
:103B200010010020EC0000209D0000209E000020DD
:103B3000A5000020A900002020010020AA000020EC
:103B4000E8000020D80000202B57494E443A323874
:103B5000000000000C030020CF1300206C13002095
:103B60002B57494E443A37320000000038B504461E
:103B700000F0E8FC0D20094988730846048172B6FC
:103B80000648C068009005480EC8054802F07BF85A
:103B900062B6024802F0BFF838BD0000081C0020E1
:103BA0009412002010B500224FF480510848FDF710
:103BB0003DF8012207490848FEF734F80749087024
:103BC0000846007810B901200549087010BD0000B2
:103BD0000000024074000020B8120020690100209B
:103BE000A200002010B54FF400610248FCF765FB0D
:103BF00010BD000008140020012001490870704722
:103C00009600002070B50024FFF7ECFF02F022F9C7
:103C1000104811490978405CD0B11048007810B9BB
:103C200001200E4908700C4802780DA1104801F0DF
:103C300087F90F48FCF75EFB85B2284600F022FCAE
:103C400004462CB900200B49087001200A4908706D
:103C500070BD00006B010020D500002097000020FF
:103C600041542B532E534F434B513D25640D0000BF
:103C70000814002028010020AD00002070B5044683
:103C8000002502F0E7F823461548027815A11A48E6
:103C900001F056F91848FCF72DFB86B2304600F0CB
:103CA000F1FB0546D5B91548007810B90120134934
:103CB0000870134804600120124908700520124959
:103CC0000860012011490870002011490870012086
:103CD0001049087041021048FCF7EFFA284670BD01
:103CE000D500002041542B532E534F434B523D25BA
:103CF000642C25640D0000000814002097000020AB
:103D0000D8000020AA00002020010020A8000020E8
:103D100028010020AD0000200C05002001200349EF
:103D200008700020024908607047000082010020EE
:103D30008401002000200349086001200249087026
:103D400070470000C40000209500002000200249B8
:103D50000870024908607047820100208401002039
:103D60000020014908707047960000200020044997
:103D7000086004490870012003490870704700007A
:103D8000C4000020950000208800002010B5FCF73A
:103D900059FF01F04FFE00F013FC10BD10B596B0B6
:103DA00000BF2B48006840F0805029490860084651
:103DB000006800F08050009000BF00BF00BF2548A1
:103DC000006840F44040234908600846006800F459
:103DD0004040009000BF00BF0A200A9001200D90D3
:103DE00010200E9001200F900220109000211191C0
:103DF000102112914FF4A8711391042114910721FD
:103E000015910AA8FDF792FA052005900220069068
:103E1000002007904FF48050089000200990022164
:103E200005A8FDF789F8022001900002049001A87E
:103E3000FCF7B0FFFDF7D8F94FF47A71B0FBF1F45D
:103E40002046FDF789FC0420FDF772FC16B010BD7A
:103E500040380240007000401448006840F4700090
:103E6000124908601248006840F0010010490860DB
:103E700000200F49083108600D4800680D490840CE
:103E80000B4908600C48091D0860081F006820F4F1
:103E90008020091F0860002005490C3108604FF0A0
:103EA00000600249803908607047000088ED00E03A
:103EB00000380240FFFFF6FE1030002410B5024823
:103EC000FDF767FC10BD0000E001002010B50248BE
:103ED000FDF75FFC10BD0000A401002010B50446F2
:103EE0000D480E4908600846446000218160C160A9
:103EF00001614FF4807181610C2141610021C16138
:103F0000FDF71BFD08B1FCF7E0FC0448FDF7BFFD21
:103F100008B1FCF7DAFC10BD00100140B812002017
:103F200010B504462068C06820F040002168C860D1
:103F300094F83900322803D1222084F839000EE0A9
:103F40002068C06820F480702168C86020684069DB
:103F500020F0010021684861012084F839002046E2
:103F6000FDF74CFF002010BD00B587B000BF2A4808
:103F7000006840F00100284908600846006800F029
:103F80000100019000BF00BF00BF0846006840F07C
:103F9000010008600846006800F00100019000BFC1
:103FA00000BF00BF1C481030006840F400301A49C0
:103FB000103108600846006800F40030019000BF2E
:103FC00000BF00BF081D006840F48040091D086064
:103FD0000846006800F48040019000BF00BF042044
:103FE00002900220039001200490032005900720F6
:103FF000069002A90948FCF72DFD08200290002038
:104000000390022003900720069002A90348FCF7C2
:1040100021FD07B000BD0000303802400000024022
:1040200070B50446002594F83950222D01D0322D68
:104030002FD120684068C1B2A26A501CA0621170E2
:10404000E08D401E80B2E08508BB2068C06820F08B
:1040500020002168C86094F83900322803D112206A
:1040600084F839000EE02068C06820F48070216870
:10407000C8602068406920F0010021684861012083
:1040800084F839002046FDF71FFE002070BD002097
:10409000FCE70220FAE700002DE9F0410446002584
:1040A0002068056925F44055E068054320680561EE
:1040B0002068C56849F20C6085432169A0680843FF
:1040C00061690843E169084305432068C5602068C9
:1040D000456925F44075A069054320684561E0699C
:1040E000B0F5004F72D173492068884203D07249FD
:1040F0002068884234D1FDF7A9F800EBC00101EB3C
:10410000001061684900B0FBF1F06421B0FBF1F6EA
:10411000FDF79CF800EBC00101EB0010616849005D
:10412000B0FBF1F7FDF792F800EBC00101EB0010D6
:1041300061684900B0FBF1F06421B0FBF1F000EBE5
:10414000C00101EB0010A7EB8000322101EB001051
:104150006421B0FBF1F066F31F1021688860A6E0CF
:10416000FDF75EF800EBC00101EB0010616849004B
:10417000B0FBF1F06421B0FBF1F6FDF751F800EB74
:10418000C00101EB001061684900B0FBF1F7FDF7D9
:1041900047F800EBC00101EB001061684900B0FB7B
:1041A000F1F06421B0FBF1F000EBC00101EB001075
:1041B000A7EB8000322101EB00106421B0FBF1F08D
:1041C00066F31F102168886071E0FFE739492068B5
:1041D000884203D038492068884234D1FDF736F848
:1041E00000EBC00101EB001061688900B0FBF1F049
:1041F0006421B0FBF1F6FDF729F800EBC00101EBFB
:10420000001061688900B0FBF1F7FDF71FF800EBC3
:10421000C00101EB001061688900B0FBF1F064217E
:10422000B0FBF1F000EBC00101EB0010A7EB800048
:10423000322101EB00106421B0FBF1F066F31F1096
:104240002168886033E0FCF7EBFF00EBC00101EB75
:10425000001061688900B0FBF1F06421B0FBF1F659
:10426000FCF7DEFF00EBC00101EB00106168890084
:10427000B0FBF1F7FCF7D4FF00EBC00101EB00103D
:1042800061688900B0FBF1F06421B0FBF1F000EB54
:10429000C00101EB0010A7EB8000322101EB001000
:1042A0006421B0FBF1F066F31F1021688860BDE85F
:1042B000F0810000001001400014014010B50146DB
:1042C000002391F83930122B01D0322B2CD1886881
:1042D000B0F5805F0FD10A6A1088C0F308000C683F
:1042E0006060086918B9086A801C086209E0086AF9
:1042F000401C086205E00C6A601C086220780C68AB
:104300006060C88C401E80B2C88458B90868C06814
:1043100020F080000C68E0600868C06840F0400051
:104320000C68E060002010BD0220FCE72DE9F041A0
:1043300004460E4617461D464FF00008FCF77CFC6D
:1043400080469FBB2BE0681C48B32DB1FCF774FC82
:10435000A0EB0800A84222D92068C06820F08000A5
:104360002168C8602068C06820F020002168C8600B
:104370002068C06820F480702168C86020684069A7
:1043800020F0010021684861012084F8390000BF55
:10439000002084F8380000BF0320BDE8F0812068C9
:1043A00000683040B04202D1012001E003E000206B
:1043B0000028C8D035E02AE0681C40B32DB1FCF7D6
:1043C0003BFCA0EB0800A84221D92068C06820F07F
:1043D00080002168C8602068C06820F02000216843
:1043E000C8602068C06820F480702168C8602068B8
:1043F000406920F0010021684861012084F83900FB
:1044000000BF002084F8380000BF0320C5E7206803
:1044100000683040B04201D1012000E000200028B7
:10442000CAD10020B9E7000010B50248FDF79FFA95
:1044300010BD0000B812002010B50248FDF797FA31
:1044400010BD0000F812002010B504460B480C49BE
:1044500008600846446000218160C160016181619B
:104460000C214161FDF769FA08B1FCF72EFA044806
:10447000FDF70DFB08B1FCF728FA10BD0044004021
:10448000F812002070B504461C48007808B90520D1
:1044900070BD1B480078012803D01A480078012815
:1044A00001D11020F4E701201749087084B917A141
:1044B0001E4800F045FD1D48FBF71CFF85B24FF478
:1044C0007A732A4619491A48FDF73CFC1F20DFE79A
:1044D0004FF47A73224617491748FDF733FC18B199
:1044E000FCF7F3F90F20D3E70020074908701348C1
:1044F000007808B9FFF756FB0020C9E78E000020BE
:104500009B0000209A000020A10000204552524F3D
:104510005220696E2055534152545F5472616E733C
:104520006D69745F41545F436D6421004C07002046
:10453000F812002008140020B8120020A200002069
:1045400000BFFEE700BF044800780128FBD0034805
:1045500000780128F7D07047B7000020B400002091
:1045600070B50025FFF73EFB06A1084800F0E8FC07
:104570000648FBF7BFFE84B22046FFF783FF0546DF
:1045800070BD000061742B732E0000000814002021
:1045900070B50025FFF726FB06A1084800F0D0FC07
:1045A0000648FBF7A7FE84B22046FFF76BFF0546DF
:1045B00070BD000041542B532E0D00000814002044
:1045C00010B52348007828B122480078012801D18D
:1045D000FEF720FE20480078012808D11F4801F08E
:1045E000E4F920B100201C490870FFF7DBFA1C48F1
:1045F000007870B11B4801680068401C194A1060BF
:1046000040F26C70814204D30020154908701146B5
:10461000086015480078D0B1144801680068401C53
:10462000124A1060B1F5FA6F11D3114800780128D1
:1046300005D10F49087000200E49087005E00C48AC
:10464000007810B901200B490870FFF77FFB10BDFF
:1046500095000020960000207E010020801200209E
:1046600098000020880100208201002084010020A1
:104670009A00002083010020F8B506460024F64881
:10468000007800286FD172B6F44801F083FAF4493B
:10469000086062B6F2480068002864D0F0480068FC
:1046A000407B0128EED1EE480068807B0F280DD2B8
:1046B000DFE800F0FD0826FCFB0DFAF9F8488AF760
:1046C000C5E2F600E6480068FEF7D0FD78E101207B
:1046D000E44908700020E4490870E44800780128A3
:1046E00004D10020E1490870DE490870E0480078F4
:1046F00028B10120DB4908700020DD4908705FE126
:10470000DC480078401CDB4908700846007808281F
:1047100006DD0120D34908700420D34908704FE119
:104720000120CF4909680989D34A5054CC48006810
:10473000007AD24908700120CA4908700020CA498D
:1047400008703DE1FFF74EFA4FF40071CC48FBF7DB
:10475000B4FDCC48006838B1CA48CBA10268CF4844
:1047600000F0EEFB17E02CE1CD48006858B1CC48D2
:1047700000680090CB480368CB48CCA10268C748CA
:1047800000F0DEFB07E0C7480368C748CDA1026818
:10479000C24800F0D5FBC148FBF7ACFD85B2284606
:1047A000FFF770FE044644B90020CB490870012091
:1047B000A9490870C949087005E00D20AA49087088
:1047C0000120A8490870FBE0FFF70CFAC4480388F1
:1047D000C4480278C4A1B14800F0B2FBAF48FBF76F
:1047E00089FD85B22846FFF74DFE044604BBFFF75E
:1047F000F9F9BB480288C1480168A848FBF744FDA5
:104800000D20A649B64A12888854B5490988891CE2
:1048100088B2FFF737FE04461CB90020AE49087085
:104820000CE001208F4908700D208F49087005E0C9
:1048300001208C4908700D208B490870C0E0FFF7FB
:10484000D1F9AF4800680090954803689648ADA13B
:104850000268924800F074FB9048FBF74BFD85B26C
:104860002846FFF70FFE04462CB101207D49087051
:104870000D207D490870A3E0FFF7B4F9784800687F
:104880000289A7A1854800F05BFB8448FBF732FD55
:1048900085B22846FFF7F6FD0446C4B9002007E0BC
:1048A00050E015E087E082E072E079E077E086E0B2
:1048B0006D49087001209E49087067490870684872
:1048C0000068007A9B49087001209B49087077E0D6
:1048D000FFF788F99948006820B999A16F4800F05E
:1048E0002FFB14E07048006830B9944897A1026823
:1048F0006A4800F025FB0AE06948006800908F488C
:104900000368694895A10268644800F019FB634890
:10491000FBF7F0FC85B22846FFF7B4FD044654B916
:1049200000206D490870012094490870944908706E
:104930009449087005E001204A4908700D204A4951
:1049400008703DE0FFF74EF95548006800907B483D
:10495000036855488CA10268504800F0F1FA4F48AE
:10496000FBF7C8FC85B22846FFF78CFD044644B926
:1049700000205949087001208A4908708049087050
:1049800005E00120374908700D203749087017E00D
:104990000120344908700D203349087010E000BF31
:1049A00001203049087000202F49087008E00020DD
:1049B0004949087004E001202A49087000E000BF5E
:1049C00000BF79480078012808D17849098888B261
:1049D000FFF754F90020744908704AE174480078E0
:1049E000012809D173480078012805D1FFF70AF999
:1049F00000206F4908703CE16F480078012813D10E
:104A00006E4803686E481E4902686E48007800F0E0
:104A1000B5FF4FF400711A48FBF74FFCFFF7ECF8B5
:104A200000206549087024E167480078012812D108
:104A300062480368624812490268092000F09EFF3C
:104A40004FF400710E48FBF738FCFFF7D5F8002053
:104A50005D4908700DE1B9E0970000209412002034
:104A600094010020800100207F010020AD00002083
:104A7000B80000206A0100206B010020D400002053
:104A80000C0500203801002041542B532E4854546B
:104A900050504F53543D25730D0000000814002062
:104AA00040010020340100203001002041542B53EC
:104AB0002E485454504745543D25732C25732C25BE
:104AC000640D000041542B532E4854545047455414
:104AD0003D25732C25730D00280100208F00002038
:104AE000500100204801002041542B532E534F43C6
:104AF0004B573D25642C25640D0000004401002027
:104B00003C01002041542B532E534F434B4F4E3DFD
:104B100025732C25642C25732C696E640D00000010
:104B200041542B532E534F434B433D25640D0000FE
:104B3000B400002060010020B50000204C010020DE
:104B400041542B532E46534C0D00000041542B531F
:104B50002E4653503D2F25730D00000041542B531A
:104B60002E485454504446535550444154453D25D5
:104B7000732C2F25732C25640D000000B10000203C
:104B8000A8000020B200002041542B532E46575558
:104B900050444154453D25732C2F25732C25640D1D
:104BA00000000000AE000020A6000020D000002081
:104BB000AB000020960000205801002004010020D6
:104BC00008010020D600002059010020C3480078C9
:104BD00001280AD10020C2490870C248007801F0BB
:104BE000B7FB0020BD49087043E0BF4800780128AA
:104BF00006D1BE4800F0B8FE0020BB49087038E07E
:104C0000BB48007801280FD1BA480168BA4800F0C3
:104C100080FE4FF40071B848FBF74FFBFEF7ECFF46
:104C20000020B349087024E0B448007801280DD171
:104C3000B14800F06DFE4FF40071AF48FBF73DFB4B
:104C4000FEF7DAFF0020AD49087012E0AC480078AA
:104C5000012805D100F01EFE0020A949087008E0D7
:104C6000A8480078012804D100F015FE0020A549CD
:104C70000870A548007D01280AD1A44800780228C0
:104C800006D1A2480078401CA049087000F042FEFE
:104C90009D48807B01280BD19D48007820B90120D8
:104CA0009B49087000F0FCFD00209749887313E1D0
:104CB0009548007C012805D100F0F0FD00209249C4
:104CC000087409E19048407C012806D1914800F021
:104CD000E3FD00208C494874FEE08B48807C01286D
:104CE00006D18C4800F0D9FD002087498874F3E094
:104CF00089480078012805D100F014FE002086497B
:104D00000870E9E085480078012805D100F00AFE26
:104D1000002082490870DFE07B48C078012806D176
:104D200000207949C870112000F0ECFDD4E07648ED
:104D30000079012806D1002073490871142000F081
:104D4000E1FDC9E070484079012806D100206E4994
:104D50004871132000F0D6FDBEE06B488079012831
:104D600006D1002068498871152000F0CBFDB3E022
:104D70006548C079012806D100206349C871162012
:104D800000F0C0FDA8E06048007A012806D10020AC
:104D90005D4908721B2000F0B5FD9DE05A48C07CBB
:104DA000012806D100205849C8741C2000F0AAFD33
:104DB00092E05548407A012806D1002052494872B5
:104DC000172000F0ECFD87E04F48807A012806D1DB
:104DD00000204D498872122000F0E1FD7CE04A4835
:104DE000C07A012806D100204749C872182000F077
:104DF000D6FD71E04448007E012806D100204249DA
:104E000008761D2000F06AFD66E03F48407F0128DB
:104E100006D100203C4948771E2000F05FFD5BE092
:104E20003948407E012806D10020374948761920AC
:104E300000F054FD50E03448807E012806D1002067
:104E4000314988761A2000F049FD45E02E48C07EA1
:104E5000012806D100202C49C876062000F03EFD2E
:104E60003AE02948807F012806D10020264988772A
:104E70001F2000F055FD2FE02348C07F012806D1F8
:104E800000202149C877202000F04AFD24E01E4878
:104E900090F82000012807D100201B4981F820004C
:104EA000212000F03DFD17E0174890F8210001286F
:104EB00007D10020144981F82100222000F030FDA4
:104EC0000AE0114890F82200012805D100200E497F
:104ED00081F8220000F062FDF8BD00005B010020B7
:104EE00028010020610100205A0100205F010020FC
:104EF0005D010020C00000200C0500205E010020A4
:104F0000A3000020A40000206C13002062010020F8
:104F100063010020CF130020830100205C010020EA
:104F20000FB4054B10B503A9044A029800F0EEF83F
:104F300010BC5DF814FB000075580008A0010020AB
:104F40000FB4084B10B504A902AA039800F0DEF8CC
:104F5000044602A9002000F070FC204610BC5DF859
:104F600014FB00003B58000802E008C8121F08C1EB
:104F7000002AFAD170477047002001E001C1121FDA
:104F8000002AFBD1704700002DE9FF5F82B00021AD
:104F9000DDE90430020DDDF840B0034318D044F6DB
:104FA0001050A2F2FF3242431514119801281FD06D
:104FB000A5EB0B00401C5FEA000A4FF000064E4FC5
:104FC000DFF83891B046504615D5CAF1000413E019
:104FD000119801244AA3012801D16FEA0B0102981C
:104FE000119AC0E90031C0E9024206B0BDE8F09F65
:104FF000CBF10000DFE704460021404A491842EBAC
:105000000450CDE9001012E0E00707D032463B46DD
:1050100040464946FBF775F98046894632463B468D
:1050200010461946FBF76DF906460F466410002C32
:10503000EAD1DDE90401DDE90023BAF1000F06DA67
:10504000FBF75FF942464B46FBF75BF905E0FBF7E0
:10505000CAF942464B46FBF7C6F904460E46002203
:10506000284BFBF7A3FB03D84FF0FF30014607E0C6
:105070000022254B20463146FBF7D8FAFBF77DFB93
:10508000102409E0002C0ADB0A220023FBF730FA87
:10509000039B30321A55641E50EA0102F2D1641C9F
:1050A000039AC4F111031444119A012A03D0012276
:1050B00008430DD10AE0084304D000204FF0110B43
:1050C000119072E7A3EB0B056D1E0DE05B4504DD4F
:1050D0004FF0000205F1010504E003DA4FF0000291
:1050E000A5F10105002AECD002981199C0E902311E
:1050F000C0E9004579E70000000014400000F03FDF
:10510000300000000000F0430000E03F2DE9FF4FB9
:1051100095B09B468946064600250FE2252877D1A3
:1051200000242746F84A0121059400E0044316F8BC
:10513000013F203B01FA03F01042F7D130782A28D2
:1051400011D06FF02F033078A0F13002092A16D861
:10515000059A44F0020402EB820203EB420210447F
:10516000761C0590EFE759F8042B0592002A03DA24
:10517000504244F40054059044F00204761C307808
:105180002E2816D116F8010F44F004042A280DD059
:105190006FF02F023078A0F13003092B09D807EB0C
:1051A000870302EB4303C718761CF3E759F8047B27
:1051B000761C30786C280FD006DC4C2817D0682875
:1051C0000DD06A2814D104E0742810D07A280FD1A9
:1051D0000DE044F400140AE044F4801401E044F4C7
:1051E00040147278824202D104F58014761C761C39
:1051F000307866280BD013DC582877D009DC0028DB
:1052000075D04528F6D04628F4D047281AD19DE11C
:1052100018E0632835D0642879D0652812D195E14B
:10522000702873D008DC6728F1D069286FD06E2809
:105230000DD06F2806D1B5E073282CD0752875D015
:10524000782874D05A46179990476D1C75E1C4F3BD
:105250000250022809D003280DD0D9F800100428E4
:105260000DD00D6009F1040967E1D9F80010EA17C3
:10527000C1E90052F6E7D9F800100D80F2E70D7091
:10528000F0E719F8041B8DF8001000208DF80100DC
:10529000EA46012003E059F804AB4FF0FF30610704
:1052A0004FF0000102D40DE008F101018846B94237
:1052B0000FDA8045F8DB1AF808100029F4D108E06D
:1052C00008F1010188468142FADB1AF8081000292A
:1052D000F6D105985B46A0EB080721463846179A99
:1052E00000F094FA284400EB080507E04DE029E1BE
:1052F0000DE01AF8010B5A4617999047B8F10108CA
:10530000F7D25B4621463846179A13E142E00A225B
:105310000092C4F302524FF0000A022A08D059F852
:1053200004CB032A4FEAEC710AD00DE029E02AE011
:1053300009F1070121F00702F2E802C1914609E0F4
:105340000FFA8CFC4FEAEC71042A03D14FFA8CFC63
:105350004FEAEC71002907DA0A460021DCF1000C63
:1053600061EB02012D2202E0220504D52B228DF8EB
:105370000420012203E0E20701D02022F7E7904653
:1053800059E00A2102E010220DE010214FF0000A3E
:1053900000910BE010224FF0000A44F004040827AB
:1053A000009203E008224FF0000A0092C4F3025278
:1053B000022A05D059F804CB0021032A08D009E0BD
:1053C00009F1070121F00702F2E802C1914605E068
:1053D0001FFA8CFC042A01D10CF0FF0C4FF00008DE
:1053E000220728D5702806D0009B83F0100353EACB
:1053F0000A0305D00EE040228DF80420012208E0C7
:105400005CEA010206D030228DF804208DF80500F8
:1054100002229046009B83F0080353EA0A030AD154
:105420005CEA010201D1620705D530228DF8042023
:105430004FF001087F1E582804D034A003900EA816
:1054400002900DE036A0F9E753466046009AFBF75C
:105450004FF884460398825C0298401E02900270C6
:105460005CEA0100F0D1029806A9081A00F1200AAE
:10547000600702D524F4803400E00127574502DD9F
:10548000A7EB0A0000E0002000EB0A01009005985D
:105490004144401A0590E00306D45B462146179A22
:1054A000059800F0B3F90544002706E001A85A4624
:1054B000C05D179990476D1C7F1C4745F6DBE003E4
:1054C0000CD55B462146179A059800F09FF90544D4
:1054D00004E030205A46179990476D1C0099481EE9
:1054E00000900029F5DC08E0029802995A460078FD
:1054F000491C0291179990476D1CBAF10001AAF15D
:10550000010AF1DC65E10000092801003031323385
:1055100034353637383961626364656600000000EF
:1055200030313233343536373839414243444546D9
:105530000000000000F058F90544761C307800287F
:105540007FF4ECAD19B02846BDE8F08F620700D4B7
:10555000062709F1070222F0070CFCE80223E146C6
:1055600003F000485FEA080C02D00FF2702C0DE047
:105570005FEA045C02D50FF2682C07E05FEAC47CA6
:1055800002D00FF2602C01E0AFF2700C4FF0FF3848
:1055900023F00043CDF850C065280CD006DC452828
:1055A00009D046281DD047283DD13DE0662818D0B7
:1055B00067287ED138E00021112F01DB112000E0A7
:1055C000781CCDE9000106A90EA8FFF7DDFCDDE996
:1055D0000F010E9A03910021009207F1010A049134
:1055E0004DE04FF000400097CDE9011006A90EA84C
:1055F000FFF7CAFCDDE90F0203920E9B119900220E
:10560000DDF80CA00093049211B9791C00EB010A9B
:10561000B7EB0A0004D4C0F1FF3007F1010A04908F
:10562000AAEB0700019044E0012F00DA01270021D6
:10563000112F01DD112000E03846CDE9000106A957
:105640000EA8FFF7A1FCDDE90F010E9A03910021DE
:1056500004910092BA4621070CD40399514500DA0F
:105660008A46BAF1010F05DD009AAAF10101515CE9
:10567000302908D0B84202DA10F1040F06DA01210D
:10568000CDE9011015E0AAF10101E9E7002805DCE8
:10569000049901440491AAEB000102E0411C514528
:1056A00000DD8A460499401A401C01904FF00040EA
:1056B0000290200704D40198504501DBCDF8048006
:1056C00000208DF84F0002980DF14F07B0F1004F08
:1056D00025D02B200E9002984FF0020800280CDAFB
:1056E000404202902D200E9007E00A210298FAF71E
:1056F000E9FE3031029007F8011DB8F10001A8F170
:105700000108F2DC02980028EFD1791E0E9808708B
:10571000307800F0200040F0450007F8020D12A894
:10572000C01B00F107081498007800B1012000EBBD
:105730000A01019801EBE07105984144401A401EAE
:105740000590E00306D45B462146179A059800F0C1
:105750005DF805441498007818B15A461799904797
:105760006D1CE00324D55B462146179A059800F08E
:105770004DF805441CE00498002807DBDDE903012F
:10578000884203DD0098405C179901E017993020AA
:105790005A469047049805F10105401C0490019871
:1057A000401E019004D12E205A46179990476D1C37
:1057B000BAF10001AAF1010ADDDC05E017F8010BDE
:1057C0005A46179990476D1CB8F10001A8F10108DD
:1057D000F4DC5B462146179A0598ABE62D000000E5
:1057E0002B000000200000002DE9F04104460025B8
:1057F0001E461746880404D405E039462020B047E9
:105800006D1C641EF9D52846BDE8F0812DE9F041F4
:10581000044600251E469046C80301D5302700E007
:105820002027880404D505E041463846B0476D1C62
:10583000641EF9D52846BDE8F0810A68531C0B6048
:10584000107070470146C86808B9012070470020F1
:10585000FCE70146C86808B9012070470020FCE752
:1058600001468A68C868B0EB121F01D10120704759
:105870000020FCE770B504460D46204600F078FA9B
:1058800070BD01468A68C868904201D10120704706
:105890000020FCE770477047704770477047000072
:1058A00010B50448016804A0FFF73AFB03200A4939
:1058B000087010BD040000200D0A77696669206336
:1058C0006F6E6E656374656420746F2041503A207A
:1058D00025730D0A000000001C00002010B50446CE
:1058E00003A0FFF71DFB204600F0BCFA10BD00002E
:1058F0000D0A20436F6E6E656374696F6E2045728A
:10590000726F720010B50446204600F0ABFA10BD6D
:105910007047704701200149087070471C00002043
:105920007047000010B503A0FFF7FAFA09200D49EF
:10593000087010BD0D0A7769666920726573756D10
:10594000696E672066726F6D20736C656570207577
:105950007365722063616C6C6261636B2E2E2E2006
:105960000D0A00001C00002010B504462046024924
:105970000968884710BD0000100000202DE9F041A3
:1059800007460C4615461E46324629462046024B1F
:105990001B689847BDE8F0810C000020704710B5E7
:1059A0000446204600F05EFA10BD0146C86864282F
:1059B00001DC012070470020FCE701468A68CB68C3
:1059C000A2F16400834201DB012070470020FCE764
:1059D000FBF740F9FEF7E2F9FCF718FA4FF4E13073
:1059E000FEF77CFAFEF7C0FA4FF4E130FEF72CFD2B
:1059F0004FF4FA70FAF770FF06A0FFF791FA07E08C
:105A00004FF47A70FAF768FF20210948FBF70AF98A
:105A1000F6E700004253505F48554D5F54454D50E6
:105A20005F496E6974206572726F72200D0A000002
:105A30000000024010B500F0B5FC012801D000F0D4
:105A400097FC10BD2DE9F04104464F4E2046FFF76C
:105A5000F9FE10B10020BDE8F0814FF400714A4812
:105A6000FAF72BFC49480078002877D06568E06891
:105A7000B0F5007F26DAE068454908602068A84252
:105A800008DC226820698118414802683046FAF72C
:105A9000FBFB12E0D4F8008023682069C118C8F528
:105AA00080623046FAF7F0FB22682169C2F5806215
:105AB00090192A46FAF7E8FB00BF606820600020D2
:105AC000E06049E02068A8420FDC22682069811864
:105AD00040F2FF123046FAF7D7FB206800F2FF10C1
